:020000040800F2
:1000000000000824591B00086D1900086F1900082A
:100010007119000873190008751900080000000024
:10002000000000000000000000000000C16800089F
:1000300077190008000000006169000879190008BC
:10004000A91B0008A91B0008A91B0008A91B000880
:10005000A91B0008A91B0008A91B0008A91B000870
:10006000A91B0008A91B0008A91B0008911900087A
:10007000A1190008A91B0008A91B0008A91B00085A
:10008000A91B0008A91B0008A91B0008A91B000840
:10009000A91B0008A91B0008A91B0008A91B000830
:1000A000A91B0008A91B0008A91B0008A91B000820
:1000B000A91B0008A91B0008B1190008A91B00080A
:1000C000A91B0008A91B0008A91B0008C1190008EA
:1000D000A91B0008A91B0008A91B0008A91B0008F0
:1000E000A91B0008A91B000800000000A91B0008AC
:1000F000A91B0008A91B0008A91B0008A91B0008D0
:10010000A91B0008A91B0008A91B0008A91B0008BF
:10011000A91B0008A91B0008A91B0008A91B0008AF
:10012000A91B0008A91B0008A91B0008A91B00089F
:10013000A91B0008A91B0008A91B0008A91B00088F
:1001400000000000000000000000000000000000AF
:10015000A91B0008A91B0008A91B0008A91B00086F
:10016000A91B0008A91B0008A91B0008A91B00085F
:10017000A91B0008A91B0008A91B0008000000001B
:10018000A91B0008A91B0008A91B0008A91B00083F
:10019000A91B0008A91B0008A91B0008A91B00082F
:1001A000A91B0008A91B0008A91B0008A91B00081F
:1001B000A91B0008A91B0008A91B0008A91B00080F
:1001C000A91B0008A91B0008A91B0008A91B0008FF
:1001D000A91B0008A91B0008A91B0008A91B0008EF
:1001E000A91B0008A91B0008A91B0008A91B0008DF
:1001F000A91B0008A91B0008A91B0008A91B0008CF
:10020000A91B0008A91B0008A91B0008A91B0008BE
:10021000A91B0008A91B0008A91B0008A91B0008AE
:10022000A91B0008A91B0008A91B0008000000006A
:10023000A91B0008A91B000800000000A91B00085A
:10024000A91B0008A91B0008A91B0008A91B00087E
:10025000A91B0008A91B0008A91B0008A91B00086E
:10026000A91B0008A91B0008A91B0008A91B00085E
:10027000A91B0008A91B0008A91B0008000000001A
:10028000A91B0008A91B0008A91B0008000000000A
:0802900000000000A91B00089A
:1002C00081F0004102E000BF83F0004330B54FEA07
:1002D00041044FEA430594EA050F08BF90EA020F74
:1002E0001FBF54EA000C55EA020C7FEA645C7FEA07
:1002F000655C00F0E2804FEA5454D4EB5555B8BF2A
:100300006D420CDD2C4480EA020281EA030382EA9A
:10031000000083EA010180EA020281EA0303362D2C
:1003200088BF30BD11F0004F4FEA01314FF4801CFF
:100330004CEA113102D0404261EB410113F0004F11
:100340004FEA03334CEA133302D0524263EB4303C8
:1003500094EA050F00F0A780A4F10104D5F1200E66
:100360000DDB02FA0EFC22FA05F2801841F10001C1
:1003700003FA0EF2801843FA05F359410EE0A5F195
:1003800020050EF1200E012A03FA0EFC28BF4CF0C6
:10039000020C43FA05F3C01851EBE37101F000457C
:1003A00007D54FF0000EDCF1000C7EEB00006EEB89
:1003B0000101B1F5801F1BD3B1F5001F0CD3490813
:1003C0005FEA30004FEA3C0C04F101044FEA44526A
:1003D00012F5800F80F09A80BCF1004F08BF5FEAF1
:1003E000500C50F1000041EB045141EA050130BDD1
:1003F0005FEA4C0C404141EB0101013C28BFB1F5E3
:10040000801FE9D291F0000F04BF01460020B1FA2D
:1004100081F308BF2033A3F10B03B3F120020CDA00
:100420000C3208DD02F1140CC2F10C0201FA0CF0DE
:1004300021FA02F10CE002F11402D8BFC2F1200C43
:1004400001FA02F120FA0CFCDCBF41EA0C019040F9
:10045000E41AA2BF01EB0451294330BD6FEA040442
:100460001F3C1CDA0C340EDC04F11404C4F120022D
:1004700020FA04F001FA02F340EA030021FA04F33F
:1004800045EA030130BDC4F10C04C4F1200220FA96
:1004900002F001FA04F340EA0300294630BD21FAD4
:1004A00004F0294630BD94F0000F83F4801306BF9A
:1004B00081F480110134013D4EE77FEA645C18BF8E
:1004C0007FEA655C29D094EA050F08BF90EA020F25
:1004D00005D054EA000C04BF1946104630BD91EA1D
:1004E000030F1EBF0021002030BD5FEA545C05D120
:1004F0004000494128BF41F0004130BD14F580045F
:100500003CBF01F5801130BD01F0004545F0FE41D2
:1005100041F470014FF0000030BD7FEA645C1ABF07
:10052000194610467FEA655C1CBF0B46024650EA3E
:10053000013406BF52EA033591EA030F41F400216A
:1005400030BD00BF90F0000F04BF0021704730B5F0
:100550004FF4806404F132044FF000054FF00001C5
:1005600050E700BF90F0000F04BF0021704730B586
:100570004FF4806404F1320410F0004548BF40425B
:100580004FF000013EE700BF42004FEAE2014FEAB0
:1005900031014FEA02701FBF12F07F4393F07F4F8B
:1005A00081F06051704732F07F4208BF704793F08E
:1005B0007F4F04BF41F40021704730B54FF46074A1
:1005C00001F0004521F000411CE700BF50EA0102A4
:1005D00008BF704730B54FF000050AE050EA01024D
:1005E00008BF704730B511F0004502D5404261EBBD
:1005F00041014FF4806404F132045FEA915C3FF4FE
:10060000D8AE4FF003025FEADC0C18BF03325FEA9A
:10061000DC0C18BF033202EBDC02C2F1200300FA4B
:1006200003FC20FA02F001FA03FE40EA0E0021FA70
:1006300002F11444BDE600BF70B54FF0FF0C4CF45E
:10064000E06C1CEA11541DBF1CEA135594EA0C0F10
:1006500095EA0C0F00F0DEF82C4481EA030621EA4B
:100660004C5123EA4C5350EA013518BF52EA033586
:1006700041F4801143F4801338D0A0FB02CE4FF038
:100680000005E1FB02E506F00042E0FB03E54FF068
:100690000006E1FB03569CF0000F18BF4EF0010E60
:1006A000A4F1FF04B6F5007F64F5407404D25FEA5C
:1006B0004E0E6D4146EB060642EAC62141EA55510F
:1006C0004FEAC52040EA5E504FEACE2EB4F1FD0C51
:1006D00088BFBCF5E06F1ED8BEF1004F08BF5FEACF
:1006E000500E50F1000041EB045170BD06F0004681
:1006F00046EA010140EA020081EA0301B4EB5C042E
:10070000C2BFD4EB0C0541EA045170BD41F4801125
:100710004FF0000E013C00F3AB8014F1360FDEBF4A
:10072000002001F0004170BDC4F10004203C35DA26
:100730000C341BDC04F11404C4F1200500FA05F3A9
:1007400020FA04F001FA05F240EA020001F000424A
:1007500021F0004110EBD37021FA04F642EB0601C0
:100760005EEA430E08BF20EAD37070BDC4F10C04EA
:10077000C4F1200500FA04F320FA05F001FA04F2AE
:1007800040EA020001F0004110EBD37041F100019A
:100790005EEA430E08BF20EAD37070BDC4F12005A5
:1007A00000FA05F24EEA020E20FA04F301FA05F20D
:1007B00043EA020321FA04F001F0004121FA04F2B5
:1007C00020EA020000EBD3705EEA430E08BF20EA85
:1007D000D37070BD94F0000F0FD101F000464000BF
:1007E00041EB010111F4801F08BF013CF7D041EA41
:1007F000060195F0000F18BF704703F00046520045
:1008000043EB030313F4801F08BF013DF7D043EA15
:100810000603704794EA0C0F0CEA135518BF95EACB
:100820000C0F0CD050EA410618BF52EA4306D1D152
:1008300081EA030101F000414FF0000070BD50EA71
:10084000410606BF1046194652EA430619D094EAFB
:100850000C0F02D150EA013613D195EA0C0F05D1E5
:1008600052EA03361CBF104619460AD181EA030139
:1008700001F0004141F0FE4141F470014FF00000F1
:1008800070BD41F0FE4141F4780170BD70B54FF08C
:10089000FF0C4CF4E06C1CEA11541DBF1CEA13550C
:1008A00094EA0C0F95EA0C0F00F0A7F8A4EB0504EE
:1008B00081EA030E52EA03354FEA013100F08880E5
:1008C0004FEA03334FF0805545EA131343EA1263AE
:1008D0004FEA022245EA111545EA10654FEA002663
:1008E0000EF000419D4208BF964244F1FD0404F51C
:1008F000407402D25B084FEA3202B61A65EB030578
:100900005B084FEA32024FF480104FF4002CB6EB34
:10091000020E75EB030E22BFB61A754640EA0C00B4
:100920005B084FEA3202B6EB020E75EB030E22BFF4
:10093000B61A754640EA5C005B084FEA3202B6EB35
:10094000020E75EB030E22BFB61A754640EA9C00F4
:100950005B084FEA3202B6EB020E75EB030E22BFC4
:10096000B61A754640EADC0055EA060E18D04FEA82
:10097000051545EA16754FEA06164FEAC30343EA22
:1009800052734FEAC2025FEA1C1CC0D111F4801FEF
:100990000BD141EA00014FF000004FF0004CB6E7E8
:1009A00011F4801F04BF01430020B4F1FD0C88BF87
:1009B000BCF5E06F3FF6AFAEB5EB030C04BFB6EB92
:1009C000020C5FEA500C50F1000041EB045170BD85
:1009D0000EF0004E4EEA113114EB5C04C2BFD4EBB2
:1009E0000C0541EA045170BD41F480114FF0000E36
:1009F000013C90E645EA060E8DE60CEA135594EAB2
:100A00000C0F08BF95EA0C0F3FF43BAF94EA0C0FB4
:100A10000AD150EA01347FF434AF95EA0C0F7FF429
:100A200025AF104619462CE795EA0C0F06D152EA7D
:100A300003353FF4FDAE1046194622E750EA410661
:100A400018BF52EA43067FF4C5AE50EA41047FF472
:100A50000DAF52EA43057FF4EBAE12E74FEA4102D5
:100A6000B2F1E04324BFB3F5001CDCF1FE5C0DD90C
:100A700001F0004C4FEAC0024CEA5070B2F1004F56
:100A800040EB830008BF20F00100704711F0804F59
:100A900021D113F13872BCBF01F00040704741F41E
:100AA00080114FEA5252C2F11802C2F1200C10FA22
:100AB0000CF320FA02F018BF40F001004FEAC12306
:100AC0004FEAD32303FA0CFC40EA0C0023FA02F3AA
:100AD0004FEA4303CCE77FEA625307D150EA013380
:100AE0001EBF4FF0FE4040F44000704701F0004050
:100AF00040F0FE4040F40000704700BF53B94AB9CF
:100B0000002908BF00281CBF4FF0FF314FF0FF3015
:100B100000F00CB8ADF1080C6DE904CE06F07EFFD4
:100B2000DDF804E0DDE9022304B07047704700BF40
:100B3000844641EA000313F003036DD1403A41D3E8
:100B400051F8043B40F8043B51F8043B40F8043BA7
:100B500051F8043B40F8043B51F8043B40F8043B97
:100B600051F8043B40F8043B51F8043B40F8043B87
:100B700051F8043B40F8043B51F8043B40F8043B77
:100B800051F8043B40F8043B51F8043B40F8043B67
:100B900051F8043B40F8043B51F8043B40F8043B57
:100BA00051F8043B40F8043B51F8043B40F8043B47
:100BB00051F8043B40F8043B51F8043B40F8043B37
:100BC000403ABDD2303211D351F8043B40F8043BD7
:100BD00051F8043B40F8043B51F8043B40F8043B17
:100BE00051F8043B40F8043B103AEDD20C3205D3E7
:100BF00051F8043B40F8043B043AF9D2043208D0DF
:100C0000D2071CBF11F8013B00F8013B01D30B8850
:100C100003806046704700BF082A13D38B078DD02E
:100C200010F003038AD0C3F10403D21ADB071CBF00
:100C300011F8013B00F8013B80D331F8023B20F86A
:100C4000023B7BE7043AD9D3013A11F8013B00F8A3
:100C5000013BF9D20B7803704B7843708B7883702B
:100C60006046704700000000000000000000000027
:100C70000000000000000000000000000000000074
:100C800090F800F06DE9024520F007016FF0000CCC
:100C900010F0070491F820F040F049804FF0000474
:100CA0006FF00700D1E9002391F840F000F108004F
:100CB00082FA4CF2A4FA8CF283FA4CF3A2FA8CF387
:100CC0004BBBD1E9022382FA4CF200F10800A4FAEE
:100CD0008CF283FA4CF3A2FA8CF3E3B9D1E9042342
:100CE00082FA4CF200F10800A4FA8CF283FA4CF379
:100CF000A2FA8CF37BB9D1E9062301F1200182FA33
:100D00004CF200F10800A4FA8CF283FA4CF3A2FA38
:100D10008CF3002BC6D0002A04BF04301A4612BA46
:100D2000B2FA82F2FDE8024500EBD2007047D1E949
:100D3000002304F00305C4F100004FEAC50514F0D8
:100D4000040F91F840F00CFA05F562EA05021CBFA9
:100D500063EA050362464FF00004A9E700000000C3
:100D600001F0FF01102A2BDB10F0070F08D010F85C
:100D7000013B013A8B422DD010F0070F42B3F6D160
:100D8000F0B441EA012141EA014122F007047FF079
:100D900000070023F0E80256083C85EA010586EAD0
:100DA000010685FA47F5A3FA87F586FA47F6A5FA0C
:100DB00087F68EB9EED1F0BC01F0FF0102F0070218
:100DC00032B110F8013B013A83EA010313B1F8D1C3
:100DD0000020704701387047002D06BF35460338A4
:100DE000073815F0010F07D1013015F4807F02BFDD
:100DF000013015F4C03F0130F0BC0138704700BF2E
:100E00004FF0FF3C06E000BF4FF0010C02E000BFD6
:100E10004FF0010C4DF804CD4FEA410C7FEA6C5CB9
:100E20004FEA430C18BF7FEA6C5C1BD001B050EA5C
:100E3000410C0CBF52EA430C91EA030F02BF90EA47
:100E4000020F0020704710F1000F91EA030F58BF06
:100E5000994208BF90422CBFD8176FEAE37040F068
:100E6000010070474FEA410C7FEA6C5C02D150EA06
:100E7000013C07D14FEA430C7FEA6C5CD6D152EAC1
:100E8000033CD3D05DF8040B704700BF8446104686
:100E900062468C461946634600E000BF01B5FFF785
:100EA000B7FF002848BF10F1000F01BD4DF808ED55
:100EB000FFF7F4FF0CBF012000205DF808FB00BF26
:100EC0004DF808EDFFF7EAFF34BF012000205DF880
:100ED00008FB00BF4DF808EDFFF7E0FF94BF0120CD
:100EE00000205DF808FB00BF4DF808EDFFF7CEFFCE
:100EF00094BF012000205DF808FB00BF4DF808ED0D
:100F0000FFF7C4FF34BF012000205DF808FB00BFDD
:100F10004FEA410C7FEA6C5C02D150EA013C0AD1F5
:100F20004FEA430C7FEA6C5C02D152EA033C02D1E7
:100F30004FF0000070474FF0010070474FEA410248
:100F400012F5001215D211D56FF47873B3EB62521B
:100F500012D94FEAC12343F0004343EA505311F042
:100F6000004F23FA02F018BF404270474FF00000D4
:100F7000704750EA013005D111F0004008BF6FF012
:100F8000004070474FF00000704700BF0348044B1B
:100F9000834202D0034B03B118477047C4090024B1
:100FA000C409002400000000054806490B1AD90FA7
:100FB00001EBA301491002D0034B03B1184770475E
:100FC000C4090024C40900240000000010B5064C28
:100FD000237843B9FFF7DAFF044B13B10448AFF3AA
:100FE00000800123237010BDC4090024000000000C
:100FF00004F6000808B5054B1BB105490548AFF3D9
:101000000080BDE80840FFF7CFBF00BF0000000030
:10101000C809002404F60008034B0360034B0B606F
:1010200080231360704700BFE00B0024E009002418
:1010300010B50024B2EE080A06F0A8FA21460548C9
:1010400006F0C8FCB1EE040A06F050FC012005F0E1
:1010500096FBF3E73CF600082DE9F0418CB0002444
:101060000794089409940A940B943E4BD3F8E0201B
:1010700042F01002C3F8E020D3F8E02002F01002A2
:101080000192019AD3F8E02042F08002C3F8E020F8
:10109000D3F8E02002F080020292029AD3F8E02016
:1010A00042F00402C3F8E020D3F8E02002F004028A
:1010B0000392039AD3F8E02042F00102C3F8E02043
:1010C000D3F8E02002F001020492049AD3F8E02061
:1010D00042F00202C3F8E020D3F8E02002F002025E
:1010E0000592059AD3F8E02042F00802C3F8E02008
:1010F000D3F8E03003F008030693069B1A4E22460D
:101100000221304601F01AFF184F224602213846CC
:1011100001F014FF0823079308940125099507A9F6
:10112000134801F0FBFD4FF00208CDF81C80089534
:1011300009940A9407A9304601F0F0FDCDF81C800F
:10114000089509940A9407A9384601F0E7FD202381
:1011500007930894099507A9304601F0DFFD0CB00C
:10116000BDE8F0810044025800080258000002580F
:101170000010025800B583B00F4BD3F8D82042F0CE
:101180000102C3F8D820D3F8D83003F0010301934B
:10119000019B002205210B2000F088FD0B2000F0B0
:1011A000BBFD002205210C2000F080FD0C2000F08A
:1011B000B3FD03B05DF804FB0044025808B50021FC
:1011C000064805F0A7FA064B18600221054801F011
:1011D000BBFE4FF4967005F0D2FAF6E760F6000811
:1011E000340C00240000025872B6FEE708B515481A
:1011F000154B03604FF4E133436000238360C36009
:1012000003610C2242618361C361036243628362B2
:1012100005F0A3F970B900210A4805F016FA58B98B
:101220000021084805F036FA40B9064805F0EEF905
:1012300030B908BDFFF7D8FFFFF7D6FFFFF7D4FF9F
:10124000FFF7D2FFEC0E00240010014008B514484F
:10125000144B03604FF4800343604FF4003383600A
:101260000723C3600023036143614FF08062826102
:10127000C361036243628362C3624FF08042426390
:101280008363C363036443648364C3640365436526
:10129000836503F0F5FD00B908BDFFF7A5FF00BFAA
:1012A000800D00240030014000B58BB0002307936F
:1012B0000893099300930193029303930493059376
:1012C00006931648164A02600322426083604FF478
:1012D0007A72C2600361836104F06CFAC0B90023C2
:1012E0000793099307A90D4804F03EFC90B96023C9
:1012F000009300220192029204926946074804F08A
:10130000D3FA48B9054800F061FA0BB05DF804FB68
:10131000FFF76AFFFFF768FFFFF766FFA00E0024E4
:101320000008004000B58BB0002307930893099391
:101330000093019302930393049305930693174834
:101340004FF0804202600322426083604FF47A7261
:10135000C2600361836104F02DFAC0B900230793D2
:10136000099307A90D4804F0FFFB90B9602300938F
:1013700000220192029204926946084804F094FA0D
:1013800048B9064800F022FA0BB05DF804FBFFF7FD
:101390002BFFFFF729FFFFF727FF00BF080E0024F0
:1013A00000B58BB000230793089309930093019332
:1013B000029303930493059306931648164A02601A
:1013C0000322426083604FF47A72C26003618361DA
:1013D00004F0F0F9C0B900230793099307A90D4859
:1013E00004F0C2FB90B960230093002201920292A4
:1013F00004926946074804F057FA48B9054800F0D6
:10140000E5F90BB05DF804FBFFF7EEFEFFF7ECFE2D
:10141000FFF7EAFE540E00240004004008B511480E
:10142000114B0360114B4360002383600122C260B3
:10143000036143618361C361036201F08FFD50B9B1
:101440000021084801F0E8FD38B90021054801F005
:1014500011FE20B908BDFFF7C7FEFFF7C5FEFFF775
:10146000C3FE00BF2C0D002400540040FFECC01050
:1014700000B59DB04C22002109A806F019FF2022DA
:10148000002101A806F014FF022001F01FFE002336
:101490000093254BDA6A22F00102DA62DB6A03F07C
:1014A00001030093214B9A6942F440429A619B697F
:1014B00003F440430093009B1C4B9B6913F4005FB3
:1014C000FAD0012309934FF480330A930223129335
:1014D000139314934022159216930822179218938F
:1014E0000C23199300231A931B9309A801F018FEEB
:1014F000B0B93F23019303230293002303930823EE
:1015000004934023059306934FF480620792089357
:10151000022101A802F058FA20B91DB05DF804FBC1
:10152000FFF762FEFFF760FE000400580048025813
:1015300000B589B000F062FBFFF79AFFFFF78CFD62
:10154000FFF718FEFFF752FEFFF780FEFFF7ACFE35
:10155000FFF7E8FEFFF724FFFFF760FF0DF1040C33
:10156000084C0FCCACE80F0094E807008CE80700AB
:10157000002101A805F0CEF8034B186005F0BBF878
:10158000FEE700BF20F60008380C002400B583B049
:101590000A4BD3F8F42042F00202C3F8F420D3F847
:1015A000F43003F002030193019B00220F216FF03E
:1015B000010000F07BFB03B05DF804FB004402581F
:1015C00010B5B8B00446002133913491359136916D
:1015D0003791C02202A806F06BFE22681B4B9A428C
:1015E00001D038B010BD08220023CDE9022302A8A3
:1015F00002F086FC30BB164CD4F8E03043F0020316
:10160000C4F8E030D4F8E03003F002030093009B0C
:10161000C02333931223349300233593369304234A
:10162000379333A90B4801F079FBD4F8E83043F441
:101630000013C4F8E830D4F8E83003F40013019341
:10164000019BCEE7FFF7D0FDD5E700BF0054004077
:10165000004402580004025830B5B9B004460021D5
:1016600033913491359136913791C02202A806F01A
:101670001FFE22682C4B9A4201D039B030BD4FF486
:1016800080520023CDE9022302A802F039FC002891
:1016900044D1264BD3F8F02042F48052C3F8F02016
:1016A000D3F8F02002F480520092009AD3F8E020A0
:1016B00042F00102C3F8E020D3F8E03003F0010368
:1016C0000193019BA0233393022334930025359586
:1016D00036950523379333A9154801F01FFB1548AC
:1016E000154B03602623436040238360C5604FF49D
:1016F0008063036145618561C5610562456200F0F3
:1017000067FC70B90B4BA3679C6300220521232063
:1017100000F0CCFA232000F0FFFAAEE7FFF764FDFB
:10172000B7E7FFF761FDEDE70030014000440258E4
:10173000000002583C0C00242800024000B585B08F
:101740000368B3F1804F08D01D4A934213D01D4A5D
:1017500093421ED005B05DF804FB1B4BD3F8E82084
:1017600042F00102C3F8E820D3F8E83003F00103A7
:101770000193019BEEE7144BD3F8E82042F00202FC
:10178000C3F8E820D3F8E83003F002030293029B89
:10179000E0E70D4BD3F8E82042F00402C3F8E8205C
:1017A000D3F8E83003F004030393039B00220521E0
:1017B0001E2000F07BFA1E2000F0AEFACAE700BF40
:1017C00000040040000800400044025800B589B001
:1017D0000023039304930593069307930368B3F1DF
:1017E000804F08D0274A93421CD0274A934230D0DA
:1017F00009B05DF804FB254BD3F8E02042F001026C
:10180000C3F8E020D3F8E03003F001030093009B1D
:101810000123039302220492079303A91C4801F0B9
:101820007DFAE5E7194BD3F8E02042F00102C3F856
:10183000E020D3F8E03003F001030193019B402343
:10184000039302230493079303A9114801F066FA56
:10185000CEE70E4BD3F8E02042F00802C3F8E020B8
:10186000D3F8E03003F008030293029B4FF4805357
:10187000039302230493079303A9064801F04EFA49
:10188000B6E700BF000400400008004000440258D2
:1018900000000258000C025830B5B9B004460021CF
:1018A00033913491359136913791C02202A806F0D8
:1018B000FFFC2268284B9A4201D039B030BD01228A
:1018C0000023CDE9022302A802F01AFB00283DD133
:1018D000224BD3F8F02042F01002C3F8F020D3F8E6
:1018E000F02002F010020092009AD3F8E02042F0BB
:1018F0000202C3F8E020D3F8E03003F002030193C2
:10190000019B4FF4404333930223349300253595D4
:1019100036950423379333A9114801F0FFF9114894
:10192000114B0360292343608560C5604FF48063D9
:10193000036145618561C5610562456200F048FB50
:1019400038B9084BC4F880309C63B6E7FFF74CFC0D
:10195000BEE7FFF749FCF4E70010014000440258DD
:1019600000040258B40C002410000240FEE7FEE719
:10197000FEE7FEE7FEE7704708B500F06DF905F0F9
:10198000F5FD012800D108BD05F01CF8FBE70000BB
:1019900008B5024800F026FE08BD00BFB40C0024C4
:1019A00008B5024800F01EFE08BD00BF3C0C002434
:1019B00008B5024803F0AFFD08BD00BFA00E00242B
:1019C00008B5024803F036FB08BD00BF800D0024B7
:1019D0000120704708B506F089F9162303604FF01F
:1019E000FF3008BD08B54FF0FF31FFF7F3FFFEE70A
:1019F00070B50C461646002506E0AFF30080214680
:101A000001F8010B01350C46B542F6DB304670BDDE
:101A100070B50C461646002504E014F8010BAFF330
:101A200000800135B542F8DB304670BD4FF0FF3025
:101A300070474FF400534B600020704701207047FF
:101A40000020704710B503460C4A0D490D48006848
:101A500040B10C4800680344521A934206D8094A20
:101A6000136010BD0748084C0460F2E706F03EF929
:101A70000C2303604FF0FF30F3E700BF00000824A1
:101A800000040000800F0024504D0024274AD2F8A3
:101A9000883043F47003C2F88830254B1B6803F08C
:101AA0000F03062B06D8224A136823F00F0343F0D6
:101AB000070313601F4B1A6842F001021A600022EC
:101AC0001A6119681C4A0A401A60194B1B6813F006
:101AD000080F06D0164A136823F00F0343F00703DC
:101AE0001360144B00229A61DA611A6213499962F9
:101AF0001349D962134919635A639963DA63196404
:101B00005A64196821F4802119601A660E4B1A680C
:101B10000E4B1340B3F1005F03D20D4B0122C3F80B
:101B200008210C4B43F2D2021A60704700ED00E02E
:101B300000200052004402587FEDF6EA0002020243
:101B40000000FF01800201010010005C0000FFFFA7
:101B50000080005100400052DFF834D0FFF796FFBC
:101B60000C480D490D4A002302E0D458C4500433F8
:101B7000C4188C42F9D30A4A0A4C002301E01360CE
:101B80000432A242FBD306F0B7F8FFF7D1FC70474E
:101B90000000082400000024C4090024A8FC000858
:101BA000C40900244C4D0024FEE70000104B1B78B4
:101BB0000BB90120704710B504464FF47A70B0FBA2
:101BC000F3F30C4A1068B0FBF3F000F0B3F868B917
:101BD0000F2C01D901200AE0002221464FF0FF30EE
:101BE00000F064F8044B1C60002000E0012010BDF0
:101BF00008000024000000240C00002410B503207D
:101C000000F042F801F0E6FD0F498B69C3F30323AE
:101C10000E4AD35C03F01F03D8408B6903F00F0317
:101C2000D35C03F01F0320FA03F3094A1360094B46
:101C300018600F20FFF7BAFF10B10124204610BD35
:101C40000446FFF7A3FCF9E7004402587CF60008BD
:101C50000400002400000024034B1B78034A116891
:101C60000B441360704700BF08000024840F002459
:101C7000014B1868704700BF840F0024014B18689F
:101C8000000C70470010005C0649CB6823F4E06349
:101C90001B041B0C000200F4E0600343024A1A43D9
:101CA000CA60704700ED00E00000FA0500B5174B70
:101CB000DB68C3F30223C3F1070CBCF1040F28BF98
:101CC0004FF0040C03F1040EBEF1060F14D9033BD0
:101CD0004FF0FF3E0EFA0CFC21EA0C0199400EFA7F
:101CE00003F322EA03031943002807DB0901C9B201
:101CF000074B19545DF804FB0023E9E700F00F00DF
:101D00000901C9B2034B1954F4E700BF00ED00E02C
:101D100000E400E014ED00E0002807DB00F01F0203
:101D2000400901239340024A42F82030704700BF27
:101D300000E100E00138B0F1807F0BD24FF0E023EA
:101D40005861054AF02182F823100020986107228B
:101D50001A6170470120704700ED00E003682749D1
:101D6000274A934218BF8B422FD0183293422CD06F
:101D70001832934229D01832934226D01832934217
:101D800023D01832934220D0183293421DD002F54E
:101D90005672934219D01832934216D01832934299
:101DA00013D01832934210D0183293420DD018320B
:101DB00093420AD01832934207D01832934204D08B
:101DC00023F0FF038365806D704710B4D9B21039DA
:101DD0000C4AA2FB0142C2F302120B4CA25CC26588
:101DE0005F2907D9094A1A4004328265806D5DF87F
:101DF000044B7047054A1A408265F7E7100002401D
:101E000028000240ABAAAAAA8CF6000800FCFFFF3B
:101E100083699BB9836A012B0AD0022B02D00BB1D4
:101E200000207047C36A13F0807F2AD100207047DA
:101E3000C36AB3F1C07F26D000207047B3F5005FBE
:101E40000AD0836A022B26D9032B26D1C36A13F04A
:101E5000807F24D100207047836A032B03D8DFE8FA
:101E600003F01404140A00207047C36A13F0807F43
:101E70000DD100207047C36AB3F1C07F09D00020A4
:101E800070470120704701207047012070470120F2
:101E900070470120704701207047002070470120E3
:101EA0007047000003682249224A934218BF8B42C0
:101EB00028D01432934225D01432934222D01432C7
:101EC00093421FD0143293421CD01432934219D043
:101ED0001432934216D0DAB2103A1749A1FB02121B
:101EE000120916491944A8291FD9154B13449B0000
:101EF0000366144B436602F01F02012303FA02F249
:101F000082667047DBB2083B0F4AA2FB03230F4AED
:101F100002EB1312920002660D4A4266C3F30413E9
:101F2000012202FA03F3836670470832DDE700BF3F
:101F3000085402581C540258ABAAAAAAF0FBFDBFD1
:101F40000082001080080240CDCCCCCC0096001658
:101F50008058025801794A1E072A2CD830B40368E9
:101F6000154D164CA34218BFAB4218D01434A342EF
:101F700015D01434A34212D01434A3420FD0143419
:101F8000A3420CD01434A34209D01434A34206D087
:101F90000B4B0B449B00C3660A4B036705E00A4BDF
:101FA0000B449B00C366094B0367012303FA02F24B
:101FB000426730BC70477047085402581C5402589E
:101FC0003F820010400902403F96001640590258D7
:101FD00070B50446FFF74CFE002C00F0B6810546B4
:101FE00023685349534A934218BF8B420CBF0122C6
:101FF000002250D030318B424DD018318B424AD024
:1020000018318B4247D018318B4244D018318B4263
:1020100041D018318B423ED001F556718B423AD0F7
:1020200018318B4237D018318B4234D018318B4263
:1020300031D018318B422ED018318B422BD0183131
:102040008B4228D018318B4225D03B493B4A9342E2
:1020500018BF8B4200F03181394A934200F02D8144
:102060001432934200F029811432934200F025810A
:102070001432934200F021811432934200F01D810A
:102080001432934200F0198140236365032384F8DE
:10209000353001204AE0022184F83510002184F80F
:1020A00034107ABB274A93422CD01832934229D05D
:1020B0001832934226D01832934223D018329342DA
:1020C00020D0183293421DD002F55672934219D097
:1020D0001832934216D01832934213D018329342DA
:1020E00010D0183293420DD0183293420AD01832D1
:1020F000934207D01832934204D01A6822F00102AA
:102100001A6003E01A6822F001021A6023681A6854
:1021100012F0010F18D0FFF7ABFD431B052BF5D9CB
:1021200020236365032384F83530012070BD00BF90
:102130001000024028000240085402581C54025863
:1021400030540258400002401A6881481040A1688B
:10215000E2680A4321690A4361690A43A1690A43A3
:10216000E1690A43216A0A430243616A042900F0D3
:1021700099807849086878490140B1F1005F11D32E
:102180006168A1F12905A1F13F00032888BF052D51
:1021900006D9A1F14700012802D94F39032901D8F6
:1021A00042F480121A602668756925F00705636A93
:1021B0001D43042B08D1A36A1D43E36A23B12046C3
:1021C000FFF726FE002872D175612046FFF7C6FD95
:1021D000E36D03F01F023F239340836023685F4950
:1021E0005F4A934218BF8B4242D0183293423FD08D
:1021F000183293423CD01832934239D0183293426D
:1022000036D01832934233D01832934230D002F590
:10221000567293422CD01832934229D018329342EE
:1022200026D01832934223D01832934220D018324D
:1022300093421DD0183293421AD01832934217D0CD
:10224000484A934214D01432934211D0143293422C
:102250000ED0143293420BD01432934208D0143271
:10226000934205D01432934202D01432934213D1D8
:102270002046FFF717FEA368802B59D0236E2279E2
:102280001A60636EA26E5A606368013B072B52D9D5
:102290000023E3662367636700206065012384F8F9
:1022A000353043E7E16A206B01430A4361E740238D
:1022B0006365012084F8350038E7022284F8352070
:1022C000002284F834201A6827491140A268402A65
:1022D0002CD0802A27D00022E06842EAD002206970
:1022E00042EAD002606942EAD002A06942EAD00222
:1022F000E06942EAD002206A42EA10120A431A60F8
:1023000022681A4B13441A4AA2FB03231B099B00A1
:10231000E3652046FFF722FDE26D02F01F01012276
:102320008A4042605AE74FF48042D5E71022D3E753
:1023300000236360A2E72046FFF70CFEE36E002255
:102340001A60236F626F5A60A6E70120EEE600BFB5
:102350003F8010FE0010005C0000FFFF10000240F4
:1023600028000240085402580F00FEFFF8ABFDA7FA
:10237000CDCCCCCC002800F0298108B5024690F8DD
:102380003530DBB2022B03D080234365012008BD2A
:102390000368904890498B4218BF83420CBF0121CB
:1023A000002166D03030834263D01830834260D041
:1023B000183083425DD0183083425AD0183083429F
:1023C00057D01830834254D000F55670834250D015
:1023D000183083424DD0183083424AD0183083429F
:1023E00047D01830834244D01830834241D018304F
:1023F00083423ED0183083423BD0196821F00E0151
:1024000019601368A0F5956073498B4218BF834229
:102410006AD072498B4267D018318B4264D0183130
:102420008B4261D018318B425ED018318B425BD029
:1024300018318B4258D001F556718B4254D0183167
:102440008B4251D018318B424ED018318B424BD039
:1024500018318B4248D018318B4245D018318B420D
:1024600042D018318B423FD0196821F00101196028
:102470003EE0042082F8350081BB584A93422DD0BB
:10248000183293422AD01832934227D018329342FE
:1024900024D01832934221D0183293421ED002F534
:1024A000567293421AD01832934217D01832934280
:1024B00014D01832934211D0183293420ED01832F1
:1024C00093420BD01832934208D01832934205D071
:1024D0001A6822F001021A60002058E71A6822F0F8
:1024E00001021A60002052E7196821F00101196009
:1024F0001368384838498B4218BF834242D018319C
:102500008B423FD018318B423CD018318B4239D0AE
:1025100018318B4236D018318B4233D018318B4270
:1025200030D001F556718B422CD018318B4229D016
:1025300018318B4226D018318B4223D018318B4270
:1025400020D018318B421DD018318B421AD018314F
:102550008B4217D022498B4214D014318B4211D0B8
:1025600014318B420ED014318B420BD014318B427C
:1025700008D014318B4205D014318B4202D0143173
:102580008B4217D1116E0B6823F480730B60906D32
:10259000D36D03F01F0101238B404360536E916E96
:1025A0005960D36E33B1196821F480711960136FCB
:1025B000516F5960012382F83530002382F834309E
:1025C000136D2BB1104698470020E0E601207047BC
:1025D0000020DCE6100002402800024040000240DB
:1025E00008540258F0B583B00446002301937D4B94
:1025F0001D687D4BA3FB0535AD0A876D3E68D7F896
:1026000000C0036879497A48834218BF8B420CBFE7
:102610000120002061D0774A93425ED01832934265
:102620005BD01832934258D01832934255D01832AA
:10263000934252D0183293424FD002F556729342D1
:102640004BD01832934248D01832934245D01832BA
:10265000934242D0183293423FD0183293423CD03A
:102660001832934239D01832934236D06249634AC5
:10267000934218BF8B4212D0614A93420FD014325A
:1026800093420CD01432934209D01432934206D0B4
:102690001432934203D01432934240F061821A689C
:1026A000E16D01F01F010420884010EA0C0F00F0DA
:1026B000A78212F0040F00F0A382786012F4004F9A
:1026C00000F05A8212F4803F40F05082A36C002B3D
:1026D00000F046822046984742E2E26D02F01F0178
:1026E00008228A40324241D070BB424A93422BD0EA
:1026F0001832934228D01832934225D01832934290
:1027000022D0183293421FD0183293421CD002F5C7
:102710005672934218D01832934215D01832934211
:1027200012D0183293420FD0183293420CD0183284
:10273000934209D01832934206D01832934203D004
:102740001A68C2F3C00202E01A68C2F380026AB1DA
:102750001A6822F004021A60E36D03F01F020823D6
:102760009340BB60636D43F001036365E26D02F06B
:102770001F0226FA02F313F0010F47D023681B480B
:102780001B498B4218BF83423CD018318B4239D051
:1027900018318B4236D018318B4233D018318B42EE
:1027A00030D018318B422DD018318B422AD001F510
:1027B00056718B4226D018318B4223D018318B4270
:1027C00020D018318B421DD018318B421AD01831CD
:1027D0008B4217D018318B4214D018318B4211D054
:1027E0001B6813E000000024B5814E1B100002405E
:1027F0002800024040000240085402581C5402586D
:10280000305402585B6913F0800F3BD1E36D03F045
:102810001F03042202FA03F3334240D02268964891
:1028200096498A4218BF824235D018318A4232D046
:1028300018318A422FD018318A422CD018318A425E
:1028400029D018318A4226D018318A4223D001F586
:1028500056718A421FD018318A421CD018318A42E0
:1028600019D018318A4216D018318A4213D0183143
:102870008A4210D018318A420DD018318A420AD0CB
:1028800013680CE0012303FA02F2BA60636D43F0AF
:1028900002036365BAE7126812F0020F3DD1E36DDF
:1028A00003F01F03102202FA03F333425FD02268C1
:1028B000714872498A4218BF824234D018318A4224
:1028C00031D018318A422ED018318A422BD018319B
:1028D0008A4228D018318A4225D018318A4222D023
:1028E00001F556718A421ED018318A421BD0183128
:1028F0008A4218D018318A4215D018318A4212D033
:1029000018318A420FD018318A420CD018318A42CD
:1029100009D01268C2F3800208E0BB60636D43F027
:1029200004036365BBE71268C2F3C002FAB1BB607F
:1029300023681A6812F4802F0DD01B6813F4002F3F
:1029400004D1236C9BB12046984710E0A36C73B16F
:10295000204698470BE01A6812F4807F03D11A686A
:1029600022F008021A60236C0BB120469847E36DF1
:1029700003F01F03202202FA03F3334200F0928097
:1029800022683D483D498A4218BF82422ED0183104
:102990008A422BD018318A4228D018318A4225D059
:1029A00018318A4222D018318A421FD018318A4207
:1029B0001CD001F556718A4218D018318A4215D0C0
:1029C00018318A4212D018318A420FD018318A4207
:1029D0000CD018318A4209D018318A4206D01831F9
:1029E0008A4203D01268C2F3400202E01268C2F3C6
:1029F0000012002A56D0BB6094F83530DBB2042BAD
:102A00000ED023681A6812F4802F39D01B6813F493
:102A1000002F2CD1636C002B44D02046984741E016
:102A20002268136823F0160313602268536923F0A9
:102A300080035361236CB3B12268136823F0080349
:102A40001360E36D03F01F023F239340BB6001233B
:102A500084F83530002384F83430236D002B7FD088
:102A6000204698477CE0A36C002BE5D1E9E7E36BB7
:102A7000C3B12046984715E01000024028000240EC
:102A80001A6812F4807F09D11A6822F010021A60C5
:102A9000012384F83530002384F83430E36B0BB124
:102AA00020469847636D002B5AD0636D13F0010FD9
:102AB00052D0042384F8353023689649964A9342CD
:102AC00018BF8B422FD0183293422CD01832934229
:102AD00029D01832934226D01832934223D018328C
:102AE000934220D0183293421DD002F55672934281
:102AF00019D01832934216D01832934213D018329C
:102B0000934210D0183293420DD0183293420AD01B
:102B10001832934207D01832934204D01A6822F038
:102B200001021A6003E01A6822F001021A60019B98
:102B300001330193AB4204D823681B6813F0010FE3
:102B4000F5D123681B6813F0010F0BD0032384F821
:102B50003530002384F83430E36C0BB120469847BD
:102B600003B0F0BD012384F83530F2E7236C002B6D
:102B7000F6D020469847F3E712F0200F3AD12368A9
:102B80006449654A934218BF8B422FD01832934252
:102B90002CD01832934229D01832934226D01832C2
:102BA000934223D01832934220D0183293421DD042
:102BB00002F55672934219D01832934216D0183249
:102BC000934213D01832934210D0183293420DD052
:102BD000183293420AD01832934207D018329342E7
:102BE00004D01A6822F004021A6003E01A6822F086
:102BF00008021A60236C002BB2D020469847AFE73A
:102C00000220884010EA0C0F60D012F0020F5DD055
:102C1000786012F4004F0ED012F4803F05D1636C3F
:102C2000002B9DD0204698479AE7E36B002B97D066
:102C30002046984794E712F0200F40D12368354989
:102C4000354A934218BF8B422FD0183293422CD072
:102C50001832934229D01832934226D01832934228
:102C600023D01832934220D0183293421DD002F55F
:102C70005672934219D01832934216D018329342AA
:102C800013D01832934210D0183293420DD018321C
:102C900093420AD01832934207D01832934204D09C
:102CA0001A6822F00A021A6003E01A6822F014027D
:102CB0001A60012384F83530002384F83430E36B44
:102CC000002B3FF44DAF2046984749E7082000FA13
:102CD00001F111EA0C0F3FF443AF12F0080F3FF47B
:102CE0003FAF1A6822F00E021A60E36D03F01F0373
:102CF000012202FA03F37B60626584F83520002329
:102D000084F83430E36C002B3FF42AAF2046984718
:102D100026E700BF1000024028000240F0B583B053
:102D200000236BE085685E000324B44025EA0405B7
:102D3000CC68B4402C438460446824EA0C0C4C6892
:102D4000C4F300149C4044EA0C04446068E0DD08CD
:102D5000083550F8256003F007044FEA840C0F246F
:102D600004FA0CF426EA040E0C6904FA0CF444EAA2
:102D70000E0440F825406BE0092400E0002404FA2A
:102D80000EF42C430CF1020C694D45F82C404FF029
:102D9000B0442568D44325EA02064F6817F4801F23
:102DA00001D042EA05064FF0B0452E606D6804EA96
:102DB00005064F6817F4001F01D042EA05064FF0E0
:102DC000B0456E60D5F8845004EA05064F6817F4E4
:102DD000003F01D042EA05064FF0B045C5F88460D7
:102DE000D5F880502C404E6816F4803F01D042EA5E
:102DF00005044FF0B042C2F8804001330A6832FA4D
:102E000003F400F092804FF0010C0CFA03FC1CEA72
:102E10000202F2D04C6804F00304013C012C81D979
:102E20004C6804F00304032C0CD0C4685D004FF020
:102E3000030C0CFA05FC24EA0C0C8C68AC4044EA48
:102E40000C04C4604C6804F00304022C3FF47FAF10
:102E500004684FEA430E4FF0030C0CFA0EFC24EA10
:102E60000C0C4C6804F0030404FA0EF444EA0C045D
:102E700004604C6814F4403FBFD02E4CD4F8F4509A
:102E800045F00205C4F8F450D4F8F44004F002040C
:102E90000194019C4FEA930C0CF10205244C54F868
:102EA000255003F003044FEA840E0F2404FA0EF4B5
:102EB00025EA0405204CA0423FF460AF04F580648D
:102EC000A04222D004F58064A04220D004F58064A2
:102ED000A0421ED004F58064A0421CD004F580649A
:102EE000A0421AD004F58064A04218D004F5806492
:102EF000A04216D004F58064A04214D004F580648A
:102F0000A0423FF439AF0A2439E7012437E702240D
:102F100035E7032433E7042431E705242FE70624AB
:102F20002DE707242BE7082429E703B0F0BD00BFF5
:102F30000004005800440258000002580AB18161A0
:102F40007047090481617047436901EA030221EA7D
:102F5000030141EA0241816170470000002857D017
:102F600010B5044690F84130002B41D0242384F85A
:102F700041302268136823F00103136063682268FC
:102F800023F0706313612268936823F40043936015
:102F9000E368012B31D0A368226843F404439360B3
:102FA000E368022B2FD0226851681A4B0B43536001
:102FB0002268D36823F40043D36023696269134312
:102FC000A169226843EA0123D360E369216A226888
:102FD0000B4313602268136843F001031360002061
:102FE0006064202384F84130206384F8420010BDDF
:102FF00080F84030FEF7E4FAB8E7A368226843F4AB
:1030000000439360CCE723684FF400625A60CAE73C
:10301000012070470080000290F84130DBB2202B85
:1030200024D190F84030012B22D0012380F8403089
:10303000242380F841300268136823F001031360F1
:103040000268136823F480531360026813681943FD
:1030500011600268136843F001031360202380F8B5
:103060004130002380F840301846704702207047F6
:103070000220704790F84130DBB2202B22D190F82B
:103080004030012B20D0012380F84030242380F8E9
:1030900041300268136823F001031360026813686B
:1030A00023F4706343EA012111600268136843F05E
:1030B00001031360202380F84130002380F8403062
:1030C000184670470220704702207047134BDB6898
:1030D00013F0040F07D1114BDB6803F007038342A1
:1030E0001AD00120704710B50C4AD36823F00703AB
:1030F0001843D060FEF7BCFD0446084B5B6813F430
:10310000005F07D1FEF7B4FD001BB0F57A7FF4D95C
:10311000012000E0002010BD002070470048025848
:10312000002800F0398338B50446036813F0010F16
:1031300025D0944A136903F03803926A102B15D0F6
:10314000182B0FD06368B3F5803F3FD0002B53D1CD
:103150008C4B1A6822F480321A601A6822F480229A
:103160001A6038E002F00302022AEBD1854B1B689B
:1031700013F4003F03D06368002B00F00F83236833
:1031800013F0020F00F0A1807E4A1369926A13F0D7
:1031900038035AD0182B55D0E368002B00F0DE809E
:1031A00078490A6822F0190213430B60FEF760FDAC
:1031B0000546744B1B6813F0040F40F0AD80FEF71A
:1031C00057FD401B0228F4D90320EEE26D4A136834
:1031D00043F48033136063682BB3FEF749FD054663
:1031E000684B1B6813F4003FC9D1FEF741FD401B3B
:1031F0006428F5D90320D8E2B3F5A02F09D0614B9C
:103200001A6822F480321A601A6822F480221A6046
:10321000E1E75C4B1A6842F480221A601A6842F4B3
:1032200080321A60D7E7FEF723FD0546554B1B6831
:1032300013F4003FA3D0FEF71BFD401B6428F5D913
:103240000320B2E212F0030FA6D14E4B1B6813F01D
:10325000040F03D0E368002B00F0A282494A1368F0
:1032600023F01903E1680B431360FEF701FD0546E7
:10327000444B1B6813F0040F06D1FEF7F9FC401B0A
:103280000228F5D9032090E2FEF7F8FC41F203038F
:10329000984212D82269402A07D03A494B6823F451
:1032A0007C3343EA02334B600FE0364A536823F421
:1032B0007C3343F40033536007E0324A536823F011
:1032C000FE43216943EA01635360236813F0100F42
:1032D00000F088802B4A136903F03803926A082BA8
:1032E00056D0182B50D0E369002B00F0B880254A47
:1032F000136843F080031360FEF7BAFC0546214BC8
:103300001B6813F4807F40F08880FEF7B1FC401BFF
:103310000228F4D9032048E2FEF7B0FC41F203038F
:10332000984212D82269402A07D016494B6823F4E4
:103330007C3343EA02334B60C7E7124A536823F4F5
:103340007C3343F400335360BFE70E4A536823F0E5
:10335000FE43216943EA01635360B6E7094A1368F3
:1033600023F001031360FEF783FC0546054B1B6841
:1033700013F0040FA9D0FEF77BFC401B0228F5D9FF
:10338000032012E20044025802F00302012AAAD1EB
:10339000A14B1B6813F4807F03D0E369802B40F0BE
:1033A0000182FEF76BFC41F20303984212D8226AB5
:1033B000202A07D098494B6823F0F84343EA8263F8
:1033C0004B600FE0944A536823F0F84343F0804386
:1033D000536007E0904AD36823F07C53216A43EAA4
:1033E0000163D360236813F0080F60D06369002B7A
:1033F00049D0894A536F43F001035367FEF738FC05
:103400000546854B5B6F13F0020F50D1FEF730FC81
:10341000401B0228F5D90320C7E1FEF72FFC41F23B
:103420000303984212D8226A202A07D07A494B68AF
:1034300023F0F84343EA82634B60D3E7764A53684C
:1034400023F0F84343F080435360CBE7724AD368DC
:1034500023F07C53216A43EA0163D360C2E76E4ADA
:10346000136823F080031360FEF702FC05466A4BE5
:103470001B6813F4807FB5D0FEF7FAFB401B0228CF
:10348000F5D9032091E1644A536F23F00103536798
:10349000FEF7EEFB0546604B5B6F13F0020F06D0A4
:1034A000FEF7E6FB401B0228F5D903207DE12368E7
:1034B00013F0200F29D0A3699BB1574A136843F436
:1034C00080531360FEF7D4FB0546534B1B6813F47F
:1034D000005F1AD1FEF7CCFB401B0228F5D9032070
:1034E00063E14D4A136823F480531360FEF7C0FB79
:1034F0000546494B1B6813F4005F06D0FEF7B8FB86
:10350000401B0228F5D903204FE1236813F0040F74
:1035100021D1636A002B00F047813F4A126902F013
:103520003802182A00F0EE80022B79D03A4A13684C
:1035300023F080731360FEF79BFB0446364B1B6839
:1035400013F0007F00F0DC80FEF792FB001B0228E6
:10355000F4D9032029E1314A136843F480731360DE
:10356000FEF786FB05462D4B1B6813F4807F06D1C2
:10357000FEF77EFB401B6428F5D9032015E1A36804
:10358000012B0AD00BBB244B1A6F22F001021A67E1
:103590001A6F22F004021A6704E01F4A136F43F007
:1035A00001031367A36833B3FEF762FB05461A4BAA
:1035B0001B6F13F0020FACD1FEF75AFB401B41F218
:1035C00088339842F3D90320EFE0052B09D0124B42
:1035D0001A6F22F001021A671A6F22F004021A67AA
:1035E000E0E70D4B1A6F42F004021A671A6F42F0BF
:1035F00001021A67D6E7FEF73BFB0546064B1B6F39
:1036000013F0020F85D0FEF733FB401B41F28833E5
:103610009842F3D90320C8E00044025800480258F9
:10362000694A136823F080731360FEF721FB054697
:10363000654B1B6813F0007F06D0FEF719FB401B9B
:103640000228F5D90320B0E05F4B996A5F4A0A402F
:10365000A16AE06A41EA00110A439A62226B013AC8
:10366000C2F30802616B0139490289B20A43A16BB6
:103670000139090401F4FE010A43E16B013909062D
:1036800001F0FE410A431A63DA6A22F00102DA62AB
:10369000596B4F4A0A40A16C42EAC1025A63DA6A86
:1036A00022F00C02216C0A43DA62DA6A22F002028A
:1036B000616C0A43DA62DA6A42F48032DA62DA6A08
:1036C00042F40032DA62DA6A42F48022DA62DA6ABA
:1036D00042F00102DA621A6842F080721A60FEF764
:1036E000C7FA0446384B1B6813F0007F06D1FEF77B
:1036F000BFFA001B0228F5D9032056E0002054E051
:10370000002052E0304A916A106B012B4ED001F03C
:103710000303A26A93424BD1C1F30511E36A9942B4
:1037200048D1C0F30802236B013B9A4244D1C0F355
:103730004622636B013B9A4240D1C0F30642A36B21
:10374000013B9A423CD1C0F30660E36B013B9842D7
:1037500038D11D4B5B6BC3F3CC03A26C9A4201D1F1
:10376000002022E0184AD36A23F00103D362FEF757
:103770007FFA0546FEF77CFAA842FBD0124A516B4D
:10378000134B0B40A16C43EAC1035363D36A43F06C
:103790000103D362002008E001207047012004E00B
:1037A000012002E0012000E0002038BD0120FCE7FC
:1037B0000120FAE70120F8E70120F6E70120F4E70D
:1037C0000120F2E70120F0E7004402580CFCFFFF63
:1037D0000700FFFF744B1B6903F03803102B00F048
:1037E000DE80182B10D00BB1704870476E4B1B68F1
:1037F00013F0200F00F0D5806B4B1868C0F3C100A8
:103800006B4B23FA00F0704710B4674A916A01F0DD
:103810000301946AC4F30510D36A03F0010C536BDF
:10382000C3F3CC030CFB03F307EE903AF8EE677A90
:1038300014F47C7F00F09380012965D0022900F008
:103840009180E1B107EE100AF8EE476A9FED596AE0
:1038500086EE267A544B1B6BC3F3080306EE903AB0
:10386000F8EE666A9FED546A67EE867A76EEA77A7E
:10387000F7EE006A77EEA67A27EE277A60E0136803
:1038800013F0200F23D011461268C2F3C102484B37
:10389000D34007EE103AF8EE476A07EE100AB8EE8A
:1038A000476A86EE867A0B6BC3F3080306EE903AFE
:1038B000F8EE666A9FED406A67EE867A76EEA77A42
:1038C000F7EE006A77EEA67A27EE277A38E007EE61
:1038D000100AF8EE476A9FED396A86EE267A324B77
:1038E0001B6BC3F3080306EE903AF8EE666A9FED91
:1038F000326A67EE867A76EEA77AF7EE006A77EE9E
:10390000A67A27EE277A1BE007EE100AF8EE476A40
:103910009FED286A86EE267A234B1B6BC3F30803C0
:1039200006EE903AF8EE666A9FED236A67EE867AB5
:1039300076EEA77AF7EE006A77EEA67A27EE277A78
:10394000194B1B6BC3F34623013307EE903AF8EE95
:10395000677AC7EE276AFCEEE67A17EE900A5DF802
:10396000044B704707EE100AF8EE476A9FED146AA1
:1039700086EE267A0C4B1B6BC3F3080306EE903AD7
:10398000F8EE666A9FED0C6A67EE867A76EEA77AA5
:10399000F7EE006A77EEA67A27EE277AD0E7094895
:1039A00070470348704700BF0044025800093D00BB
:1039B0000090D0030024744A000000390024744CA5
:1039C00020BCBE4B40787D01002800F0328170B5EC
:1039D0000D4604469B4B1B6803F00F038B420BD232
:1039E000984A136823F00F030B431360136803F026
:1039F0000F038B4240F01F81236813F0040F0CD09B
:103A00002269914B9B6903F070039A4205D98E4954
:103A10008B6923F070031A438A61236813F0080F3F
:103A20000CD06269884BDB6903F070039A4205D9B8
:103A30008549CB6923F070031A43CA61236813F0E8
:103A4000100F0CD0A269804BDB6903F4E0639A424B
:103A500005D97D49CB6923F4E0631A43CA61236821
:103A600013F0200F0CD0E269774B1B6A03F0700350
:103A70009A4205D974490B6A23F070031A430A620B
:103A8000236813F0020F0CD0E2686F4B9B6903F0C0
:103A90000F039A4205D96C498B6923F00F031A432F
:103AA0008A61236813F0010F41D0674A936923F4B8
:103AB0007063A1680B4393616368022B0AD0032BE8
:103AC00027D0012B2CD0604A126812F0040F06D1C7
:103AD0000120ADE0126812F4003F00F0AE805A49B8
:103AE0000A6922F0070213430B61FEF7C1F806468C
:103AF000554B1B6903F038036268B3EBC20F16D055
:103B0000FEF7B6F8801B41F288339842F0D90320C3
:103B10008EE04D4A126812F0007FE0D1012087E06C
:103B2000494A126812F4807FD9D1012080E02368CD
:103B300013F0020F0CD0E268434B9B6903F00F03B4
:103B40009A4205D240498B6923F00F031A438A61D8
:103B50003C4B1B6803F00F03AB420AD9394A136888
:103B600023F00F032B431360136803F00F03AB42E2
:103B700065D1236813F0040F0CD02269324B9B6986
:103B800003F070039A4205D22F498B6923F070032A
:103B90001A438A61236813F0080F0CD062692A4B1C
:103BA000DB6903F070039A4205D22749CB6923F001
:103BB00070031A43CA61236813F0100F0CD0A26976
:103BC000214BDB6903F4E0639A4205D21E49CB69BD
:103BD00023F4E0631A43CA61236813F0200F0CD06A
:103BE000E269194B1B6A03F070039A4205D2164929
:103BF0000B6A23F070031A430A62FFF7EBFD1249C8
:103C00008B69C3F30323114AD35C03F01F03D8402D
:103C10008B6903F00F03D35C03F01F0320FA03F357
:103C20000B4A13600B4B18600B4B1868FDF7BEFF77
:103C300070BD012070470120FAE70120F8E701205C
:103C4000F6E700BF00200052004402587CF600084E
:103C500004000024000000240C00002408B5FFF735
:103C6000B9FD0B4A9369C3F303230A49CB5C03F004
:103C70001F0320FA03F3926902F00F02885C00F040
:103C80001F0023FA00F0044A1060044A136008BDC4
:103C9000004402587CF600080400002400000024C0
:103CA00008B5FFF7DBFF054BDB69C3F30213044ADA
:103CB000D35C03F01F03D84008BD00BF0044025886
:103CC0007CF6000808B5FFF7C9FF054BDB69C3F3B5
:103CD0000223044AD35C03F01F03D84008BD00BF91
:103CE000004402587CF60008404B9B6A03F0030333
:103CF000032B79D070B505460E463C4A136823F075
:103D000080631360FDF7B4FF0446384B1B6813F063
:103D1000006F06D0FDF7ACFF031B022BF5D9032083
:103D200070BD324B9A6A22F47C32296842EA013231
:103D30009A626A68013AC2F30802A9680139490225
:103D400089B20A43E9680139090401F4FE010A4312
:103D500029690139090601F0FE410A439A63DA6ACA
:103D600022F0C00269690A43DA62DA6A22F02002AC
:103D7000A9690A43DA62DA6A22F01002DA62D96BC0
:103D80001B4A0A40E96942EAC102DA63DA6A42F090
:103D90001002DA62C6B91A46DB6A43F40023D36222
:103DA000124A136843F080631360FDF761FF044615
:103DB0000E4B1B6813F0006F14D1FDF759FF001B69
:103DC0000228F5D90320ABE7012E05D0074AD36AB4
:103DD00043F40013D362E3E7044AD36A43F4801345
:103DE000D362DDE700209BE70120704700440258C2
:103DF0000700FFFF404B9B6A03F00303032B79D0BE
:103E000070B505460E463C4A136823F08053136094
:103E1000FDF72EFF0446384B1B6813F0005F06D0F9
:103E2000FDF726FF031B022BF5D9032070BD324B93
:103E30009A6A22F07C72296842EA01529A626A68A0
:103E4000013AC2F30802A9680139490289B20A435A
:103E5000E9680139090401F4FE010A4329690139BD
:103E6000090601F0FE410A431A64DA6A22F440624C
:103E700069690A43DA62DA6A22F40072A9690A43BC
:103E8000DA62DA6A22F48072DA62596C1B4A0A40FA
:103E9000E96942EAC1025A64DA6A42F48072DA627B
:103EA000C6B91A46DB6A43F48003D362124A136828
:103EB00043F080531360FDF7DBFE04460E4B1B6896
:103EC00013F0005F14D1FDF7D3FE001B0228F5D9D3
:103ED0000320ABE7012E05D0074AD36A43F0807375
:103EE000D362E3E7044AD36A43F40003D362DDE715
:103EF00000209BE701207047004402580700FFFFA5
:103F0000F8B50446036813F0006F30D0836EB3F544
:103F1000001F26D00ED8EBB1B3F5801F07D10221C8
:103F20000830FFF7E1FE054645B12E4621E00126A7
:103F300035461EE0B3F5401F09D10025984A136DA0
:103F400023F44013A16E0B431365002611E00126F4
:103F500035460EE0924AD36A43F40033D36200251B
:103F6000ECE702212830FFF745FF0546DCE7002695
:103F70003546236813F4807F14D0A36D042B32D808
:103F8000DFE803F003232A080800854AD36A43F4D4
:103F90000033D36255BB824A136D23F00703A16D32
:103FA0000B431365236813F4007F31D0E36D802B3E
:103FB0004CD020D8002B43D0402B19D1002104F144
:103FC0000800FFF791FE05461AE0002104F1080001
:103FD000FFF78AFE0546DDE7002104F12800FFF720
:103FE00009FF0546D6E701263546DBE72E46D9E729
:103FF000012635460CE0C02B02D0B3F5807F1CD1E2
:104000005DBB674A136D23F4E073E16D0B431365E9
:10401000236813F4806F46D0D4F8A830B3F5800F2E
:1040200039D01FD88BB3B3F5001F18D1002104F18C
:104030000800FFF759FE05461AE001263546E7E776
:10404000574AD36A43F40033D362D9E7002104F11D
:104050002800FFF7CFFE0546D2E72E46D8E7012617
:10406000354620E0B3F5C00F02D0B3F5000F09D1FB
:10407000C5B94B4A936D23F46003D4F8A8100B43E1
:10408000936510E0012635460DE0454AD36A43F4B6
:104090000033D362ECE7002104F12800FFF7AAFE09
:1040A0000546E5E72E46236813F4006F24D0D4F8C4
:1040B000AC30B3F1007F42D00ED8002B39D0B3F131
:1040C000807F06D1002104F10800FFF70DFE0546B0
:1040D00008E0012635460FE0B3F1407F02D0B3F18E
:1040E000806F23D1002D31D12D4A936D23F0E063F1
:1040F000D4F8AC100B439365236813F0007F2ED0E7
:10410000E36C202B40D026D833B1102B20D1244A89
:10411000D36A43F40033D362002D3CD1204AD36CE0
:1041200023F03003E16C0B43D36418E001263546DD
:10413000E2E71B4AD36A43F40033D362D2E700219B
:1041400004F12800FFF756FE0546CBE72E46D3E7DD
:104150000126354603E0302BDED0012635462368A4
:1041600013F4805F2DD0236EB3F5005F4FD019D8C4
:10417000002B46D0B3F5805F0FD1002104F1080079
:10418000FFF7B2FD054613E0022104F10800FFF736
:10419000ABFD0546C0E72E46E1E70126354610E0B7
:1041A00000440258B3F5405F02D0B3F5804F25D1EB
:1041B000002D33D1774A136D23F4E043216E0B4376
:1041C0001365236813F4005F38D0636EB3F5003FC6
:1041D00053D028D843B1B3F5803F21D1012104F158
:1041E0000800FFF781FD0546002D4DD1694A136D8A
:1041F00023F4E023616E0B4313651FE0012635466F
:10420000DFE7644AD36A43F40033D362D0E7002186
:1042100004F12800FFF7EEFD0546C9E72E46D0E77A
:10422000012635460AE0B3F5802FDDD0B3F5A02F87
:10423000DAD0B3F5403FD7D001263546236813F4D2
:10424000804F31D0D4F8B030B3F1005F45D020D8E2
:1042500043B1B3F1805F19D1012104F10800FFF7E8
:1042600043FD0546002D3FD14A4A936D23F0E043BC
:10427000D4F8B0100B43936516E0012104F1280037
:10428000FFF7B8FD0546AFE72E46D7E701263546CE
:104290000AE0B3F1804FE5D0B3F1A04FE2D0B3F123
:1042A000405FDFD001263546236813F4004F09D064
:1042B000236FB3F1805F19D0B3F1005F24D0D3B185
:1042C00001263546236813F0807F33D0A36C032B7F
:1042D0005BD8DFE803F027225327012104F12800EF
:1042E000FFF788FD0546BDE72E46DDE7294AD36A7C
:1042F00043F40033D36275B9264A136D23F040535B
:10430000216F0B431365DDE7012104F10800FFF77E
:10431000EBFC0546EFE72E46D4E71E4AD36A43F48A
:104320000033D362A5BB1B4AD36C23F00303A16CFB
:104330000B43D364236813F4800F2DD1236813F04B
:10434000010F00F0A580E36F282B00F29F80DFE8CB
:1043500003F08D9D9D9D9D9D9D9D879D9D9D9D9DFA
:104360009D9D969D9D9D9D9D9D9D8D9D9D9D9D9D94
:104370009D9D8D9D9D9D9D9D9D9D8D00022104F186
:104380000800FFF7B1FC0546CCE701263546D1E72A
:104390002E46CFE700440258914A136843F48073D5
:1043A0001360FDF765FC07468D4B1B6813F4807F97
:1043B00005D1FDF75DFCC01B6428F5D90325002D50
:1043C0004AD1884B1B6FD4F8B420534013F4407F7C
:1043D0000CD0844B1A6F22F44072196F41F4803173
:1043E0001967196F21F4803119671A67D4F8B4304E
:1043F000B3F5807F15D08DBBD4F8B43003F4407290
:10440000B2F5407F1ED0774A136923F47C531361C1
:1044100074490B6FD4F8B420C2F30B0213430B673B
:104420008CE7FDF725FC07466E4B1B6F13F0020F60
:10443000E1D1FDF71DFCC01B41F288339842F3D94E
:104440000325D8E76748026922F47C52664901EAED
:10445000131313430361DBE72E466FE72E466DE728
:10446000012104F10800FFF73FFC0546E5B95D4A6C
:10447000536D23F03803E16F0B43536508E00121CE
:1044800004F12800FFF7B6FC0546EFE701263546A4
:10449000236813F0020F17D0A36F052B28D8DFE88D
:1044A00003F00B05200B0B0B2E46F1E7012104F165
:1044B0000800FFF719FC0546EDB94A4A536D23F091
:1044C0000703A16F0B435365236813F0040F23D038
:1044D000D4F89430052B45D8DFE803F0150F3D15CF
:1044E0001515012104F12800FFF784FC0546E3E7D8
:1044F00001263546E8E72E46E6E7012104F10800EB
:10450000FFF7F2FB054685BB364A936D23F00703A0
:10451000D4F894100B439365236813F0200F34D024
:10452000D4F89030B3F1005F4ED023D843B1B3F14B
:10453000805F1CD1002104F10800FFF7D5FB054680
:10454000002D48D1274A536D23F0E043D4F8901052
:104550000B43536519E0012104F12800FFF74AFCE1
:104560000546D0E701263546D6E72E46D4E7012694
:1045700035460AE0B3F1804FE2D0B3F1A04FDFD06F
:10458000B3F1405FDCD001263546236813F0400FBD
:1045900037D0D4F89C30B3F5006F53D026D843B150
:1045A000B3F5806F19D1002104F10800FFF79CFBDF
:1045B0000546002D4DD10B4A936D23F4E053D4F8FA
:1045C0009C100B4393651CE0022104F12800FFF7C7
:1045D00011FC0546B4E72E46D7E70126354610E024
:1045E0000048025800440258CFFFFF00B3F5805F37
:1045F000DFD0B3F5A05FDCD0B3F5406FD9D0012692
:104600003546236813F0800F33D0D4F8A030B3F5CB
:10461000804F00F0A38021D843B1B3F5005F1AD1D9
:10462000002104F10800FFF75FFB0546002D40F074
:104630009C80814A936D23F46043D4F8A0100B430F
:10464000936516E0022104F12800FFF7D3FB05462D
:10465000AFE72E46D5E7012635460AE0B3F5004F11
:10466000E4D0B3F5204FE1D0B3F5C04FDED0012642
:104670003546236813F0080F0CD0D4F88430B3F516
:10468000805F74D06C4A536D23F44053D4F8841087
:104690000B435365236813F0100F0CD0D4F89830F7
:1046A000B3F5807F6CD0644A936D23F44073D4F8E3
:1046B00098100B439365236813F4002F0BD0D4F8A4
:1046C000A430B3F5803F74D0B3F5003F67D0002B22
:1046D0005FD001263546236813F4802F0CD0D4F820
:1046E0008830B3F5001F7CD0B3F5401F6FD0B3F511
:1046F000801F67D001263546236813F4803F08D019
:10470000236D002B76D0B3F5803F00F08180012629
:104710003546236813F0005F40F08380236813F46C
:10472000003F00F08E80D4F88030B3F5807F00F039
:10473000EC8040F28380B3F5007F03D0B3F5407F77
:1047400040F0E180002D40F0E6803B4A536D23F4B9
:104750004073D4F880100B43536572E0022104F1DA
:104760002800FFF747FB054660E72E4681E7022158
:1047700004F12800FFF73EFB002883D0012681E7E3
:10478000022104F12800FFF735FB00288BD0012619
:1047900089E7002104F10800FFF7A6FA05467DB974
:1047A000254A936D23F44033D4F8A4100B4393654A
:1047B00091E7022104F12800FFF71CFB0546EEE714
:1047C0002E4688E71C4AD36A43F40033D3627DB98E
:1047D000194A536D23F44013D4F888100B435365E2
:1047E0008AE7012104F12800FFF704FB0546EEE704
:1047F0002E4681E7104AD36A43F40033D36275B979
:104800000D4AD36C23F48033216D0B43D36480E7CE
:10481000022104F10800FFF767FA0546EFE72E468C
:1048200077E7022104F12800FFF7E4FA00283FF4BB
:1048300075AF012672E700BF00440258002B81D0FB
:104840000126236813F4801F06D04F4A136D23F00E
:104850000043616F0B431365236813F0805F07D03B
:10486000494A136923F48043D4F8B8100B43136109
:10487000236813F4001F06D0434A136D23F080739E
:10488000E16E0B431365236813F0804F09D03E4B54
:104890001A6922F400421A611A69D4F8BC100A435A
:1048A0001A612368002B06DA374AD36C23F0405391
:1048B000616D0B43D364236813F4000F07D0324AB1
:1048C000536D23F44003D4F88C100B435365636895
:1048D00013F0010F21D1636813F0020F26D1636832
:1048E00013F0040F2BD1636813F0080F30D1636805
:1048F00013F0100F35D1636813F0200F3AD106B1D1
:1049000001263046F8BD01269BE71F4AD36A43F4CF
:104910000033D36216E72E4693E7002104F1080026
:10492000FFF7E2F90028D6D00646D4E7012104F1CA
:104930000800FFF7D9F90028D1D00646CFE70221B9
:1049400004F10800FFF7D0F90028CCD00646CAE7EA
:10495000002104F12800FFF74DFA0028C7D00646D1
:10496000C5E7012104F12800FFF744FA0028C2D06E
:104970000646C0E7022104F12800FFF73BFA0028B1
:10498000BDD00646BBE700BF0044025808B5FFF79C
:1049900065F9054B1B6AC3F30213044AD35C03F0A9
:1049A0001F03D84008BD00BF004402587CF6000831
:1049B00010B5774A916A946AC4F3053ED36AC3F38B
:1049C000001CD36BC3F3CC030CFB03F314F47C3F48
:1049D00000F0D88001F0030107EE903AF8EE677A14
:1049E000012965D0022900F0B080E1B107EE10EA9C
:1049F000B8EE477A9FED676AC6EE076A644B9B6B19
:104A0000C3F3080307EE103AB8EE477A9FED626AE7
:104A100067EE867A77EE277AB7EE007A77EE877AB6
:104A200066EEA76A60E0136813F0200F23D01146EA
:104A30001268C2F3C102594BD34007EE103AB8EEE8
:104A4000477A06EE90EAB8EE666AC7EE066A8B6BA6
:104A5000C3F3080307EE103AB8EE477A9FED4E6AAB
:104A600067EE867A77EE277AB7EE007A77EE877A66
:104A700066EEA76A38E007EE10EAB8EE477A9FEDD7
:104A8000486AC6EE076A424B9B6BC3F3080307EE06
:104A9000103AB8EE477A9FED406A67EE867A77EE75
:104AA000277AB7EE007A77EE877A66EEA76A1BE080
:104AB00007EE10EAB8EE477A9FED366AC6EE076A4F
:104AC000334B9B6BC3F3080307EE103AB8EE477AFB
:104AD0009FED316A67EE867A77EE277AB7EE007A35
:104AE00077EE877A66EEA76A294A936BC3F346236B
:104AF00007EE103AB8EE477AB7EE006A37EE067A5C
:104B0000C6EE877AFCEEE77AC0ED007A936BC3F3CA
:104B1000064307EE103AB8EE477A37EE067AC6EE4D
:104B2000877AFCEEE77AC0ED017A936BC3F30663F4
:104B300007EE903AF8EE677A77EE867A86EEA77AF5
:104B4000BCEEC77A80ED027A10BD07EE10EAB8EE2F
:104B5000477A9FED146AC6EE076A0D4B9B6BC3F351
:104B6000080307EE103AB8EE477A9FED0B6A67EE3E
:104B7000867A77EE277AB7EE007A77EE877A66EE56
:104B8000A76AB1E70023036043608360DCE700BFEE
:104B9000004402580024744A000000390090D003F9
:104BA0000024744C20BCBE4B10B5774A916A946ABD
:104BB000C4F3055ED36AC3F3002C536CC3F3CC0378
:104BC0000CFB03F314F07C7F00F0D88001F00301AC
:104BD00007EE903AF8EE677A012965D0022900F0D5
:104BE000B080E1B107EE10EAB8EE477A9FED676A50
:104BF000C6EE076A644B1B6CC3F3080307EE103A5A
:104C0000B8EE477A9FED626A67EE867A77EE277A8A
:104C1000B7EE007A77EE877A66EEA76A60E01368EF
:104C200013F0200F23D011461268C2F3C102594B72
:104C3000D34007EE103AB8EE477A06EE90EAB8EEA7
:104C4000666AC7EE066A0B6CC3F3080307EE103AF8
:104C5000B8EE477A9FED4E6A67EE867A77EE277A4E
:104C6000B7EE007A77EE877A66EEA76A38E007EE4D
:104C700010EAB8EE477A9FED486AC6EE076A424BE3
:104C80001B6CC3F3080307EE103AB8EE477A9FEDAA
:104C9000406A67EE867A77EE277AB7EE007A77EE8B
:104CA000877A66EEA76A1BE007EE10EAB8EE477A4D
:104CB0009FED366AC6EE076A334B1B6CC3F30803DD
:104CC00007EE103AB8EE477A9FED316A67EE867AC2
:104CD00077EE277AB7EE007A77EE877A66EEA76AE4
:104CE000294A136CC3F3462307EE103AB8EE477A0D
:104CF000B7EE006A37EE067AC6EE877AFCEEE77A00
:104D0000C0ED007A136CC3F3064307EE103AB8EE19
:104D1000477A37EE067AC6EE877AFCEEE77AC0ED80
:104D2000017A136CC3F3066307EE903AF8EE677AE4
:104D300077EE867A86EEA77ABCEEC77A80ED027AA5
:104D400010BD07EE10EAB8EE477A9FED146AC6EE82
:104D5000076A0D4B1B6CC3F3080307EE103AB8EE5D
:104D6000477A9FED0B6A67EE867A77EE277AB7EE81
:104D7000007A77EE877A66EEA76AB1E700230360D0
:104D800043608360DCE700BF004402580024744A9B
:104D9000000000390090D0030024744C20BCBE4BAE
:104DA00010B402685369916941F00801916101688A
:104DB0008A6942F010028A6101680A6822F00102E1
:104DC0000A6001680C69294A22400A6101688A6800
:104DD00022F440428A6090F88120D2B2042A0DD099
:104DE00013F0200F0AD0D0F8842042F08002C0F8DF
:104DF000842001688A6942F020028A6190F881204B
:104E0000D2B2032A0DD013F0400F0AD0D0F884207C
:104E100042F00402C0F8842001688A6942F040022E
:104E20008A6113F4007F0AD0D0F8842042F0010296
:104E3000C0F8842001688A6942F400728A6113F420
:104E4000807F0AD0D0F8843043F00803C0F8843063
:104E50000268936943F4807393610023A0F8623081
:104E6000A0F86A305DF8044B704700BF90FCFFFF6C
:104E7000C36B5B09C0680830C00803FB00007047C3
:104E8000002800F0B78070B50446002383620568EF
:104E90005C4B5D4E9D4218BFB54214BF01260026F3
:104EA00007D0A3F574439D4203D0C3680F2B00F2D3
:104EB000A3802046FFF7DCFF2EB1544B9D4202D069
:104EC000082800F29B804F4A4F4B9D4218BF9542E5
:104ED00003D003F580639D4202D1102800F2908038
:104EE00094F88130F3B1022384F88130226813688A
:104EF00023F00103136021688A6802F4F812A369A1
:104F0000B3F1806F14D0636813F4800F23D0E3688B
:104F1000062B20D921680B6823F48073206D03438E
:104F20000B601DE084F880302046FCF795FBDAE743
:104F30006368B3F5800F06D0002BE4D1A36BB3F107
:104F4000805FE0D102E0A06B0028F5D10B6843F44C
:104F500080530B60D7E721680B6823F480730B60E4
:104F6000E369A16A0B431343E26B1343E1682268D0
:104F70000B439360636B626A1343A26B1343A26992
:104F800013432269134362691343226A134362681D
:104F90001343E26C1343A2681343A26C1343A16D45
:104FA00022680B43D36063686BB92268936823F46B
:104FB000C05343F4006393602268936823F4C06392
:104FC00043F4806393602268136D23F0010313653B
:104FD000636813F4800F06D02268D36823F000437F
:104FE000616D0B43D3600020C4F88400012384F872
:104FF000813070BD012070470120FAE70120F8E7F9
:105000000120F6E70030014000380040003C00403D
:10501000704770477047704708B5806B0023A0F851
:105020006A30A0F86230012380F88130FFF7F3FF87
:1050300008BD70472DE9F843044606683269736974
:1050400002EA0305D6F8089090F88170FFB213F4D5
:10505000006F02D012F0080F3FD105F06403042B5B
:1050600042D0002305F04508B8F1010F44D005F007
:105070002602022A45D0002B46D115F0080F79D020
:105080002268936943F0080393612268936943F0AF
:10509000100393612268936943F40063936122686B
:1050A000136923F00803136123689B6813F4404FCE
:1050B0003BD02046FFF774FE012384F88130D4F8FA
:1050C0008430002B4AD1052F4CD0042F4ED0032F13
:1050D0001AD12046FFF79CFF16E0B36943F4006342
:1050E000B361FFF7A6FF0FE0636F20469847236F79
:1050F000204698470123B5E7236F2046984743464B
:10510000B5E7636F20469847BDE8F883072B1CD9A5
:10511000636E328E1A80636E02336366B4F86A304F
:105120009BB2013B9BB2A4F86A30B4F86A309BB2E0
:10513000002BBED0E3680F2BE8D92268636E126B98
:105140001A60636E04336366E8E72268636E92F860
:1051500030201A70636E01336366DFE72046FFF785
:105160005AFFD1E72046FFF755FFCDE72046FFF76E
:1051700050FFC9E715F4587FC6D015F0400F0AD08C
:10518000D4F8843043F00403C4F88430226893696F
:1051900043F04003936115F4007F0AD0D4F88430C3
:1051A00043F00103C4F884302268936943F4007328
:1051B000936115F4807F0AD0D4F8843043F008035B
:1051C000C4F884302268936943F48073936115F0C6
:1051D000200F0AD0D4F8843043F08003C4F8843020
:1051E0002268936943F020039361D4F88430002B44
:1051F0008AD02268136823F00103136022681169C2
:105200001A4B0B40136109F44049B9F5404F25D1C1
:105210002268936823F440439360E36F5BB1144AC0
:105220001A65E06FFDF7A6F828B1D4F8843043F092
:105230004003C4F88430A36F002B3FF465AF0C4AE1
:105240001A65A06FFDF796F800283FF45DAFD4F81B
:10525000843043F04003C4F8843055E7012384F8D8
:1052600081302046FFF7D7FE4EE700BF94FCFFFFDA
:1052700019500008F0B4036A23F001030362036AC3
:10528000466884691F4A22400D68154323F00203D3
:105290008C6823431C4A1D4CA04218BF90420CBF8F
:1052A000012200220CD004F58044A04214BF002447
:1052B0000124174FB84203D014B9164CA04205D1AF
:1052C00023F00803CC68234323F004035AB9124A9D
:1052D000904214BF002201220D4CA04203D012B90B
:1052E0000C4A904207D126F4407C4A6942EA0C0CF1
:1052F0008E6946EA0C06466085614A68426303622D
:10530000F0BC70478CFFFEFF00000140000401402C
:1053100000400140004801400044014070B4036A6D
:1053200023F480730362036A4568C4691A4A224001
:105330000E68164323F400738A6843EA0223174A6F
:10534000174CA04218BF90420CBF0122002206D188
:1053500023F40063CC6843EA042323F480635AB93E
:10536000104A904214BF002201220F4CA04203D0E9
:1053700012B90E4A904207D125F4405C4A694CEAC2
:10538000021C8D694CEA05154560C6614A68C26316
:10539000036270BC704700BF8CFFFEFF000001403D
:1053A0000004014000440140004001400048014029
:1053B00070B4036A23F480530362036A4468C569C6
:1053C000144A2A400D6842EA052223F400538D68EE
:1053D00043EA0533104E114DA84218BFB0420DD01C
:1053E00005F58045A84214BF0025012506F5804635
:1053F000B04203D015B90A4DA84204D124F4804428
:105400004D6944EA85144460C2614A6802640362DB
:1054100070BC7047FF8CFFFE00000140000401409B
:105420000048014070B4036A23F480330362036AC6
:105430004268456D144C2C400D682C4323F4003316
:105440008D6843EA0543114E114DA84218BFB04282
:105450000DD005F58045A84214BF0025012506F5AD
:105460008046B04203D015B90A4DA84204D122F4B7
:1054700080324D6942EA0522426044654A6882658D
:10548000036270BC704700BF8FFFFEFF0000014049
:10549000000401400048014070B4036A23F4801303
:1054A0000362036A4468456D144A2A400D6842EA63
:1054B000052223F400138D6843EA0553104E114D65
:1054C000A84218BFB0420DD005F58045A84214BFD0
:1054D0000025012506F58046B04203D015B90A4DD6
:1054E000A84204D124F480244D6944EA8524446010
:1054F00042654A68C265036270BC7047FF8FFFFE59
:10550000000001400004014000480140704770471E
:1055100070477047704710B5044603681A6912F067
:10552000020F11D0DA6812F0020F0DD06FF00202F4
:105530001A610123037703689B6913F0030F79D085
:10554000FFF7E6FF0023237723681A6912F0040FA0
:1055500012D0DA6812F0040F0ED06FF004021A6154
:105560000223237723689B6913F4407F68D0204689
:10557000FFF7CEFF0023237723681A6912F0080F84
:1055800012D0DA6812F0080F0ED06FF008021A611C
:10559000042323772368DB6913F0030F57D02046D9
:1055A000FFF7B6FF0023237723681A6912F0100F64
:1055B00012D0DA6812F0100F0ED06FF010021A61DC
:1055C000082323772368DB6913F4407F46D0204605
:1055D000FFF79EFF0023237723681A6912F0010F5B
:1055E00003D0DA6812F0010F3FD123681A6912F074
:1055F000800F03D0DA6812F0800F3DD123681A695A
:1056000012F4807F03D0DA6812F0800F3BD1236858
:105610001A6912F0400F03D0DA6812F0400F39D146
:1056200023681A6912F0200F03D0DA6812F0200FF5
:1056300037D110BDFFF76BFF2046FFF76AFF81E708
:105640002046FFF764FF2046FFF763FF92E72046FE
:10565000FFF75DFF2046FFF75CFFA3E72046FFF75B
:1056600056FF2046FFF755FFB4E76FF001021A61BD
:105670002046FFF74BFFB8E76FF080021A61204623
:1056800000F0C3FABAE76FF480721A61204600F0A6
:10569000BDFABCE76FF040021A612046FFF73AFFFF
:1056A000BEE76FF020021A61204600F0ADFAC0E7B5
:1056B00030B50368394A904214BF4FF0000E4FF0E6
:1056C000010EB0F1804F14BF72464EF00102AAB92C
:1056D000334CA04214BF00240124324DA8420DD007
:1056E00064B904F1804404F58234A04214BF00245C
:1056F000012405F50065A84200D01CB123F0700319
:105700004C68234312BB264A904214BF0022012258
:10571000244CA0421AD0CAB902F1804202F582326A
:10572000904214BF0022012204F50064A0420DD073
:1057300062B91D4A904214BF0022012204F59A3436
:10574000A04203D012B9194A904204D123F4407CFC
:10575000CB6843EA0C0323F080034A6913430360D8
:105760008A68C2620A688262114A904214BF734614
:105770004EF0010363B90C4B984214BF0023012380
:1057800002F57052904203D013B9084B984201D1F0
:105790000B6903630123436130BD00BF000001407A
:1057A000000800400004004000440140004801405F
:1057B0000004014060B310B5044690F83D3013B3C7
:1057C000022384F83D30214651F8040BFFF770FFA7
:1057D000012384F8483084F83E3084F83F3084F860
:1057E000403084F8413084F8423084F8433084F803
:1057F000443084F8453084F8463084F8473084F8E3
:105800003D30002010BD80F83C30FBF797FFD7E714
:105810000120704770B4036A23F010030362036A27
:10582000456884691A4A22400E6842EA062623F037
:1058300020038A6843EA0213164A174CA04218BF95
:1058400090420CBF0122002206D123F08003CC68D5
:1058500043EA041323F040035AB9104A904214BF9C
:10586000002201220E4CA04203D012B90D4A9042F0
:1058700007D125F4406C4A694CEA820C8D694CEAE8
:105880008505456086614A688263036270BC704723
:10589000FF8CFFFE00000140000401400044014075
:1058A000004001400048014038B590F83C30012BE1
:1058B00000F0958004460D46012380F83C30142A00
:1058C00000F28880DFE802F00B8686861F868686D7
:1058D00034868686488686865D8686867100006860
:1058E000FFF7C8FC2268936943F0080393612268BC
:1058F000936923F0040393612268936929690B4338
:105900009361002067E00068FFF784FF22689369D5
:1059100043F4006393612268936923F48063936185
:1059200022689369296943EA01239361002052E0C8
:105930000068FFF7F3FC2268D36943F00803D361E2
:105940002268D36923F00403D3612268D3692969EB
:105950000B43D36100203EE00068FFF729FD226879
:10596000D36943F40063D3612268D36923F480636D
:10597000D3612268D369296943EA0123D3610020F6
:1059800029E00068FFF74EFD2268536D43F00803DD
:1059900053652268536D23F0040353652268536DE9
:1059A00029690B435365002015E00068FFF774FD7B
:1059B0002268536D43F4006353652268536D23F4EA
:1059C000806353652268536D296943EA0123536557
:1059D000002000E00120002384F83C3038BD022084
:1059E000FCE701F01F01012303FA01FC036A23EA2B
:1059F0000C030362036A02FA01F10B43036270476E
:105A000010B50446084600294ED194F83E30DBB26A
:105A1000013B18BF0123002B40F09B8000286ED172
:105A2000022384F83E30012201462068FFF7D9FFA7
:105A300023684A494A4A934218BF8B420BD002F569
:105A40007052934207D002F58062934203D002F570
:105A50008062934203D15A6C42F400425A64236834
:105A60003E4AB3F1804F18BF934264D0A2F57C4206
:105A7000934260D002F5806293425CD002F580626E
:105A8000934258D002F57842934254D0A2F56C422A
:105A9000934250D002F5943293424CD01A6842F0AF
:105AA00001021A60002055E004290CD0082911D009
:105AB0000C2916D010291BD094F84330DBB2013BDF
:105AC00018BF0123A7E794F83F30DBB2013B18BFB2
:105AD0000123A0E794F84030DBB2013B18BF01235B
:105AE00099E794F84130DBB2013B18BF012392E7FC
:105AF00094F84230DBB2013B18BF01238BE7042846
